:020000040800F2
:1000000000000320DD0100080F0500080D050008B1
:100010000D0500080D0500080D0500080000000092
:100020000000000000000000000000000F050008B4
:100030000F050008000000000F0500080F0500086C
:100040000D0500080D0500080D0500080D05000848
:100050000D0500080D0500080D0500080D05000838
:100060000D0500080D0500080D0500080D05000828
:100070000D0500080D0500080D0500080D05000818
:100080000D0500080D0500080D0500080D05000808
:100090000D0500080D0500080D0500080D050008F8
:1000A0000D0500080D0500080D0500080D050008E8
:1000B0000D0500080D0500080D0500080D050008D8
:1000C0000D0500080D0500080D0500080D050008C8
:1000D0000D0500080D0500080D0500080D050008B8
:1000E0000D0500080D0500080D0500080D050008A8
:1000F0000D0500080D0500080D0500080D05000898
:100100000D0500080D0500080D0500080D05000887
:100110000D0500080D0500080D0500080D05000877
:100120000D0500080D0500080D0500080D05000867
:100130000D0500080D0500080D0500080D05000857
:100140000D0500080D0500080D0500080D05000847
:100150000D0500080D0500080D0500080D05000837
:100160000D0500080D0500080D0500080D05000827
:100170000D0500080D0500080D0500080D05000817
:100180000D0500080D0500080D0500080D05000807
:100190000D0500080D0500080D0500080D050008F7
:1001A0000D0500080D0500080D05000810B50948EB
:1001B000094C00F031F94FF4C06000F024F801213F
:1001C000204600F01DF80028F9D0BDE8104000F0EE
:1001D00007B800BF9805000800000240FFF7E6BF1F
:1001E000054806490860BFF34F8FD0F800D040683B
:1001F0000047FFF7DBBF00000030000808ED00E01B
:10020000006908407047430903F1804303F50E334A
:1002100000F01F001968012202FA00F0084318607C
:1002200070470000062822D8DFE800F004171C09F8
:100230000E1315000F4B1868C0F3406070470D4B4C
:100240001868C0F3404070470A4B1868C0F340007C
:100250007047094BF9E7094BF7E7064B1868C0F3FD
:1002600040707047034B1868C0F3C06070470020AF
:10027000704700BF003802407038024074380240B6
:1002800008B502461046FFF7CDFF0028FAD008BD9A
:1002900006280AD8DFE800F004181D0A0F1416001B
:1002A0000E4A136843F08073136070470B4A13685B
:1002B00043F48033F8E7094A136843F00103F3E796
:1002C000074AF9E7074AF7E7044A136843F08053FF
:1002D000EAE7024A136843F08063E5E7003802402A
:1002E000703802407438024006280AD8DFE800F06F
:1002F00004181D0A0F1416000E4A136823F08073A9
:10030000136070470B4A136823F48033F8E7094AF7
:10031000136823F00103F3E7074AF9E7074AF7E711
:10032000044A136823F08053EAE7024A136823F073
:100330008063E5E7003802407038024074380240BC
:10034000034A136823F0030318431060704700BF8B
:1003500008380240034A136823F4604343EA4030FC
:100360001060704708380240034A136823F4E053D2
:1003700043EA80201060704708380240034A13683F
:1003800023F0F00343EA0010106070470838024081
:1003900010B547F6C07404EA811100F03F001B0657
:1003A00003F0706301431943029B5408022B04F1CC
:1003B000FF344FEA044438BF022304F440341B07DF
:1003C00003F0E04321431943014B196010BD00BF06
:1003D0000438024010B5029C022C38BF02242407C6
:1003E0001B0603F0706304F0E04452081C4300F065
:1003F0003F0047F6C073013A03EA81110443120437
:100400000C4302F44032034B144344F480041C6058
:1004100010BD00BF0438024037B504460420FFF782
:1004200037FF0420FFF72CFF0020FFF789FFE37957
:10043000012B05D10320FFF72BFF0320FFF720FF3F
:1004400040F61C00FFF7DFFEE07B00F08BF8207B1E
:10045000FFF794FF607BFFF787FFA07BFFF77AFF32
:10046000254A6188136823F080731360E379A579C6
:10047000227920780095012B637931D1FFF7AAFF0B
:100480001D4A136843F0807313600020FFF7F8FEE5
:10049000A3685A0527D500F045F8A3689B0525D524
:1004A00000F050F8A06800F033F80220FFF748FF92
:1004B000124A1368C3F38103022BFAD1104B22694D
:1004C0001A60104B62691A600F4BA2691A60E379D7
:1004D000012B0ED1042003B0BDE83040FFF704BF6C
:1004E000FFF756FFCCE700F025F8D6E700F032F82A
:1004F000D8E703B030BD00BF0038024008380240E2
:10050000000000200400002008000020FEE77047E3
:10051000034A136823F00F0318431060704700BFAD
:10052000003C0240024A136843F480631360704742
:10053000003C0240024A136823F480631360704752
:10054000003C0240024A136843F400731360704792
:10055000003C0240024A136823F4007313607047A2
:10056000003C0240044A1368800323F4404380B2F5
:1005700018431060704700BF007000400800500131
:1005800004070001020600000004000300BD01058D
:1005900080DE800200BD0105080050010207000155
:1005A0000506000000050403007A030A80DE8002CD
:1005B00000BD0105080068010208000105060000F1
:1005C000000504030095BA0A40A5AE02804A5D0505
:0C05D0000024F4000024F4000024F400D7
:04000005080001DD11
:020000040800F2
:1030000000000320913500088F3500088D35000839
:103010008D3500088D3500088D3500080000000052
:103020000000000000000000000000008F350008D4
:103030008F350008000000008F3500088F3500082C
:103040008D3500088D3500088D3500088D35000858
:103050008D3500088D3500088D3500088D35000848
:103060008D3500088D3500088D3500088D35000838
:103070008D3500088D3500088D3500088D35000828
:103080008D3500088D3500088D3500088D35000818
:103090008D3500088D3500088D3500088D35000808
:1030A0008D3500088D3500088D3500088D350008F8
:1030B0008D3500088D3500088D3500088D350008E8
:1030C0008D3500088D3500088D3500088D350008D8
:1030D0008D3500088D3500088D3500088D350008C8
:1030E0008D3500088D3500088D3500088D350008B8
:1030F0008D3500088D3500088D3500088D350008A8
:103100008D3500088D3500088D3500088D35000897
:103110008D3500088D3500088D3500088D35000887
:103120008D3500088D3500088D3500088D35000877
:103130008D3500088D3500088D3500088D35000867
:103140008D3500088D3500088D3500088D35000857
:103150008D3500088D3500088D3500088D35000847
:103160008D3500088D3500088D3500088D35000837
:103170008D3500088D3500088D3500088D35000827
:103180008D3500088D3500088D3500088D35000817
:103190008D3500088D3500088D3500088D35000807
:1031A0008D3500088D3500088D35000808B50648B6
:1031B00000F072F94FF4C06000F066F8BDE8084016
:1031C00040F2066000F060B8B036000810B508485C
:1031D0004FF400530022012100F036F8BDE8104002
:1031E00003484FF480430022012100F02DB800BFB6
:1031F0000018024038B5FFF7D9FFFFF7E7FF094D88
:10320000094C4FF40051284600F015F8074B00BF59
:10321000013BFCD10121204600F00AF80028F9D139
:10322000EFE700BF001802400000024080A8120132
:10323000006908407047436901EA030221EA03017B
:1032400041EA0241816170472DE9F0410568C46897
:1032500000264FF0030E43FA06F7FF070DD577005F
:103260000EFA07FC01FA07F825EA0C0524EA0C041B
:1032700002FA07F748EA05053C430136102EEAD169
:103280000560C460BDE8F081430903F1804303F5A4
:103290000E3300F01F001968012202FA00F0084303
:1032A00018607047062822D8DFE800F004171C09D0
:1032B0000E1315000F4B1868C0F3406070470D4B9C
:1032C0001868C0F3404070470A4B1868C0F34000CC
:1032D0007047094BF9E7094BF7E7064B1868C0F34D
:1032E00040707047034B1868C0F3C06070470020FF
:1032F000704700BF00380240703802407438024006
:1033000008B502461046FFF7CDFF0028FAD008BDE9
:1033100006280AD8DFE800F004181D0A0F1416006A
:103320000E4A136843F08073136070470B4A1368AA
:1033300043F48033F8E7094A136843F00103F3E7E5
:10334000074AF9E7074AF7E7044A136843F080534E
:10335000EAE7024A136843F08063E5E70038024079
:10336000703802407438024006280AD8DFE800F0BE
:1033700004181D0A0F1416000E4A136823F08073F8
:10338000136070470B4A136823F48033F8E7094A47
:10339000136823F00103F3E7074AF9E7074AF7E761
:1033A000044A136823F08053EAE7024A136823F0C3
:1033B0008063E5E70038024070380240743802400C
:1033C000034A136823F0030318431060704700BFDB
:1033D00008380240034A136823F4604343EA40304C
:1033E0001060704708380240034A136823F4E05322
:1033F00043EA80201060704708380240034A13688F
:1034000023F0F00343EA00101060704708380240D0
:1034100010B547F6C07404EA811100F03F001B06A6
:1034200003F0706301431943029B5408022B04F11B
:10343000FF344FEA044438BF022304F440341B072E
:1034400003F0E04321431943014B196010BD00BF55
:103450000438024010B5029C022C38BF0224240715
:103460001B0603F0706304F0E04452081C4300F0B4
:103470003F0047F6C073013A03EA81110443120486
:103480000C4302F44032034B144344F480041C60A8
:1034900010BD00BF0438024037B504460420FFF7D2
:1034A00037FF0420FFF72CFF0020FFF789FFE379A7
:1034B000012B05D10320FFF72BFF0320FFF720FF8F
:1034C00040F61C00FFF7E0FEE07B00F0D7F8207B21
:1034D000FFF794FF607BFFF787FFA07BFFF77AFF82
:1034E000254A6188136823F080731360E379A57916
:1034F000227920780095012B637931D1FFF7AAFF5B
:103500001D4A136843F0807313600020FFF7F8FE34
:10351000A3685A0527D500F091F8A3689B0525D527
:1035200000F09CF8A06800F07FF80220FFF748FF49
:10353000124A1368C3F38103022BFAD1104B22699C
:103540001A60104B62691A600F4BA2691A60E37926
:10355000012B0ED1042003B0BDE83040FFF704BFBB
:10356000FFF756FFCCE700F071F8D6E700F07EF8E1
:10357000D8E703B030BD00BF003802400838024031
:10358000000000200400002008000020FEE7704733
:1035900038B51A4A1A4B1B498B421BD31A4A0021D1
:1035A00093421CD3194A1A4C13681A4D43F4007302
:1035B0001360536F43F470035367AC4212D3164C3D
:1035C000164DAC4212D3FFF715FE154C154DAC420B
:1035D00010D338BD52F8040B43F8040BDCE743F872
:1035E000041BDDE754F8043B9847E6E754F8043B36
:1035F0009847E6E754F8043B9847E8E7E8360008C0
:10360000000000200C0000200C00002014ED00E061
:10361000E8360008E8360008E8360008E836000812
:10362000E8360008E8360008034A136823F00F0361
:1036300018431060704700BF003C0240024A136804
:1036400043F4806313607047003C0240024A1368F1
:1036500023F4806313607047003C0240024A136801
:1036600043F4007313607047003C0240024A136841
:1036700023F4007313607047003C0240044A13684F
:10368000800323F4404380B218431060704700BFAA
:10369000007000400800500104070001020600000D
:1036A0000004000300BD010580DE800200BD0105AD
:1036B0000800500102070001050600000005040390
:1036C000007A030A80DE800200BD0105080068015F
:1036D0000208000105060000000504030095BA0A6F
:0836E00040A5AE02804A5D0521
:0C36E8000024F4000024F4000024F4008E
:040000050800359129
:00000001FF
